:020000040800F2
:10000000A8040020010100081B0C0008530B000885
:10001000190C000899010008990D00080000000063
:100020000000000000000000000000001F0C00089D
:100030009B010008000000001D0C0008610C000876
:100040001B0100081B0100081B0100081B01000820
:100050001B0100081B0100081B0100081B01000810
:100060001B0100081B0100081B0100081B01000800
:100070001B0100081B0100081B0100081B010008F0
:100080001B0100081B0100081B0100081B010008E0
:100090001B01000800000000000000001B01000818
:1000A0000000000000000000000000000000000050
:1000B0001B0100081B0100081B0100081B010008B0
:1000C0001B0100081B0100081B0100081B010008A0
:1000D0001B0100081B0100081B0100081B01000890
:1000E0001B0100081B0100081B010008DFF80CD0F1
:1000F00000F040F800480047790F0008A8040020ED
:100100000648804706480047FEE7FEE7FEE7FEE7B1
:10011000FEE7FEE7FEE7FEE7FEE7FEE7A70C0008C6
:10012000ED000008D2B201E000F8012B491EFBD21D
:1001300070470022F6E710B513460A4604461946F2
:10014000FFF7F0FF204610BD30B50B4601460020FA
:100150002022012409E021FA02F59D4205D303FA89
:1001600002F5491B04FA02F52844151EA2F101020A
:10017000F1DC30BD064C074D06E0E06840F00103BD
:1001800094E8070098471034AC42F6D3FFF7B2FF6B
:10019000C0170008E0170008FEE7704770B5044676
:1001A00000F0F4F80546601C02D0044800780444CE
:1001B00000F0ECF8401BA042FAD370BD50000020C4
:1001C0002DE9F84FDFF89C91002409F1040A0AF1A7
:1001D000040B23460F270BF1040EBBE00125A540BD
:1001E0002A40AA4276D1DFF880C14E68A6EB0C08FF
:1001F00066452BD00DDC032E34D005DC36B3012E42
:1002000019D0022E2FD11BE0112E16D0122E2AD17A
:1002100019E0B8F5881F19D006DCB8F5803F15D075
:10022000B8F5801F1FD111E0B8F5001F0ED0B8F54A
:10023000041F18D10AE0CB6815E0CB681B1D12E043
:10024000CB6808330FE0CB680C330CE08B682BB124
:10025000012B4FF0080303D0456104E0042302E0C2
:10026000056100E00023FF2A01D8064601E000F105
:1002700004064FEA840501D9A5F12005D6F80080CF
:1002800007FA05FC28EA0C0803FA05F548EA050810
:10029000C6F800804D68ED005BD5344DAE6946F080
:1002A0000106AE61AD6924F0030605F00105009575
:1002B0002F4D06EB050CDCF80850A607360F07FAA1
:1002C00006F825EA0805DFF8AC80404503D14FF079
:1002D000000810E03DE0DFF8A080404502D14FF07B
:1002E000010808E0DFF89480404502D14FF0020891
:1002F00001E04FF0030808FA06F848EA0508CCF8D0
:1003000008804D68D9F80060ED034D4601D51643CD
:1003100000E096432E604D68DAF80060AD03554664
:1003200001D5164300E096432E604D68DBF800606F
:10033000ED025D4601D5164300E096432E604D6800
:10034000DEF80060AD02754601D5164300E0964325
:100350002E60641C0A6832FA04F57FF43FAFBDE8F2
:10036000F88F00000004014000001110001002404E
:100370000000014000080140000C01400010014055
:100380008068084000D00120704700000148806864
:100390007047000050000020024881680278114434
:1003A0008160704750000020074810B5016841F097
:1003B00010010160032000F067F8002000F006F84B
:1003C00000F024F8002010BD0020024070B50D4D53
:1003D00004464FF47A712878B1FBF0F00A490968B5
:1003E000B1FBF0F000F0DEFA48B9102C07D2002281
:1003F0002146501E00F028F800206C6070BD0120DE
:1004000070BD0000500000205C0000200C4808B5C2
:10041000816941F001018161816901F0010100916F
:10042000C16941F08051C161C06900F08050009005
:100430000448416821F0E06141F00071416008BD6D
:100440000010024000000140F0B40E4B1B680C4647
:10045000C3F30223C3F10705042D00D90425191D98
:10046000072901D2002300E0DB1E012606FA05F170
:10047000491E214099409E40761E16403143F0BCF3
:1004800000F09CBC0CED00E0064900F00702086893
:100490004FF6FF03184040EA0220034A1043086069
:1004A000704700000CED00E00000FA052DE9F04770
:1004B0000F46050061D0434E306800F00700B84297
:1004C00009D2306820F0070038433060306800F00F
:1004D0000700B84251D128683B4C810712D540072C
:1004E00003D5606840F4E06060602878000703D5B9
:1004F000606840F4605060606068A96820F0F000B7
:10050000084360602878C00728D06868012810D0A8
:100510002168022810D0890700292EDA616821F0AD
:10052000030101436160FFF731FF804641F28839E2
:100530000DE021688903EFE78901EDE7FFF726FF6A
:10054000A0EB0801494502D90320BDE8F0876068A7
:10055000696800F00C00B0EB810FEFD1306800F05B
:100560000700B8420BD9306820F0070038433060EC
:10057000306800F00700B84201D00120E5E7287894
:10058000400705D56068E96820F4E06008436060D2
:100590002878000706D56068296920F4605040EA91
:1005A000C100606000F038F86168084AC1F30311C7
:1005B000515CC8400649086006480068FFF706FF1E
:1005C0000020C2E700200240001002404817000847
:1005D0005C00002054000020044805490068496878
:1005E000044AC1F30221515CC84070475C000020FE
:1005F000001002405817000804480549006849687F
:10060000044AC1F3C221515CC84070475C0000201D
:10061000001002405817000812A185B00FC98DE8DC
:100620000F0014A0144A006804905168134801F0A8
:100630000C03042B10D0082B0ED1C1F38343C90344
:100640001DF803000AD5516804AAC1F34041515C6A
:100650000A4A5043B0FBF1F005B0704708494843DF
:10066000FAE7000002030405060708090A0B0C0D4F
:100670000E0F1010010200000010024000127A005C
:1006800000093D002DE9F84F040070D02078C04DDE
:10069000C00749D06868C0F38100012807D06868A6
:1006A000C0F38100022809D16868C00306D5286814
:1006B000800339D560680028E7D035E06068B0F580
:1006C000803F0BD010B1B0F5A02F11D0286820F4D6
:1006D00080302860286820F4802002E0286840F4F8
:1006E00080302860606890B1FFF750FE06460AE04F
:1006F000286840F480202860F0E700BFFFF746FE3E
:10070000801B642873D828688003F7D50CE0FFF7B6
:100710003DFE064605E000BFFFF738FE801B64285B
:10072000F0D828688003F7D420789A4E80074FF0DD
:1007300001094FF0000839D5686810F00C0F07D098
:100740006868C0F38100022809D16868C00306D434
:100750002868800714D52069012808D110E0206995
:10076000B0B1C6F80090FFF711FE074605E00AE1B8
:10077000FFF70CFEC01B0228C4D828688007F7D5F5
:100780002868616920F0F80040EAC10028600DE0A7
:10079000C6F80080FFF7FAFD074604E0FFF7F6FD14
:1007A000C01B022823D828688007F7D420780007C8
:1007B0002CD57948A169D9B1C0F80090FFF7E6FDC2
:1007C000074604E0FFF7E2FDC01B02280FD8686A65
:1007D0008007F7D571484FF4FA510068B0FBF1F08B
:1007E000009000BF0098411E0091FAD20EE080E018
:1007F000C0F80080FFF7CAFD074604E0FFF7C6FD1A
:10080000C01B022875D8686A8007F7D42078400793
:1008100060D5E8690027C00008D4E86940F080503E
:10082000E861E869012700F0805000905C480168A9
:10083000C90513D40168834641F480710160FFF754
:10084000A5FD824606E000BFFFF7A0FDA0EB0A0071
:1008500064284ED8DBF80000C005F5D5E068012813
:100860000AD008B1052813D0286A20F001002862B8
:10087000286A20F0040002E0286A40F001002862A3
:10088000E06841F2883B98B1FFF780FD82460BE0BB
:10089000286A40F004002862EEE700BFFFF776FD0B
:1008A000A0EB0A0159455AD8286A8007F6D50CE012
:1008B000FFF76CFD824605E0FFF768FDA0EB0A013B
:1008C00059454CD8286A8007F6D41FB1E86920F052
:1008D0008050E861E06988B36968C1F38101022949
:1008E00044D00228C6F8608004D0FFF74FFD0446CC
:1008F00038E034E0FFF74AFD074604E0FFF746FD25
:10090000C01B02282BD828688001F7D4206AB0F5D4
:10091000803F05D16868A16820F400300843686012
:10092000D4E908010843696821F474110843686038
:10093000C6F86090FFF72AFD044606E025E000BFF8
:10094000FFF724FD001B022809D828688001F7D58D
:100950001BE000BFFFF71AFD001B022802D903208D
:10096000BDE8F88F28688001F4D40EE00128F7D0A4
:100970006868226A00F48031914204D1616A00F40F
:100980007010884201D00120EAE70020E8E700006B
:100990000010024000004242800442425C000020FD
:1009A0000070004010B5401EB0F1807F01D30120DF
:1009B00010BD4FF0E02460610F21601700F0FEF9D8
:1009C0000020A06107202061002010BD70B5040048
:1009D00004D094F83D00002510B106E0012070BD60
:1009E00084F83C50204600F023F8242084F83D0091
:1009F0002068C16821F40051C160204600F054F91C
:100A00002068016921F4904101612068416921F069
:100A10002A0141612068C16841F40051C160256428
:100A2000202084F83D0084F83E00002070BD0000C6
:100A300030B585B0002400940194029403940068BA
:100A40001449884224D11448816941F4804181616C
:100A5000816901F480410491816941F0040181615F
:100A600080690E4D00F0040004904FF40070009077
:100A7000022001900320039069462846FFF7A0FB5F
:100A80002815CDE90004694628460294FFF798FB33
:100A900005B030BD003801400010024000080140A0
:100AA0002DE9F843044690F83D001F4616460D46D2
:100AB00020284CD1C5B1BEB194F83C00012846D0E5
:100AC000012084F83C004FF00008C4F84080212049
:100AD00084F83D00FFF75AFCA6848146E684A068AE
:100AE000B0F5805F03D004E00120BDE8F883206901
:100AF00028B12E465FF0000584F83C800EE0002609
:100B0000FAE78021204600F015F9A0B9AEB116F839
:100B1000010B21684860E08C401EE084E08C4B466D
:100B20004FF0000200970028EBD14FF04001204623
:100B300000F000F930B10320D7E735F8020BC0F31D
:100B40000800E6E7202084F83D000020CDE70220E1
:100B5000CBE7FEE70021064A0120135C401C194444
:100B6000C0B289B20728F8D3484280B2704700006B
:100B70004400002010B50446014609A000F00EF91B
:100B800000221146162000F017F84FF4FA70FFF714
:100B900005FB22460021BDE81040032000F00CB800
:100BA000506C61793A2025640A0000000022114649
:100BB0000C2000F001B8000010B5094CE070617124
:100BC000A271FFF7C7FF010AE17120722146BDE85B
:100BD00010400A224FF496730248FFF761BF0000ED
:100BE0004400002064000020024600210620FFF798
:100BF000E3BF000010B505A000F0D0F80022BDE86A
:100C0000104011461620FFF7D7BF00004D5033208B
:100C100053746F7020210A00FEE7FEE770477047AB
:100C200010B509A000F0BAF80C486421C160012198
:100C300001614161002101704170817081714162E7
:100C40008162C162C17010BD5365742044656661E4
:100C5000756C20446174610A0000000000000020EF
:100C6000FFF79ABB10B590B028216846FFF761FAEC
:100C700014210AA8FFF75DFA0220009001200490D9
:100C800010200024059007946846FFF7FBFC0F2016
:100C9000CDE90A040C940D9400210AA80E94FFF7E4
:100CA00005FC10B010BD704710B50446006801691E
:100CB000E26821F44051114301612169A0680843B1
:100CC000616908432168CA6841F20C639A43024390
:100CD000CA6020684169A26921F4407111434161F1
:100CE00013492068884202D1FFF786FC01E0FFF734
:100CF00073FC00EBC00101EB001061686422890005
:100D0000B0FBF1F1B1FBF2F06FF01803434301EBDC
:100D10008303322101EB0311B1FBF2F101F0F00288
:100D200002EB001001F00F0108442168886010BD3B
:100D3000003801402DE9F041984617460E4604461A
:100D4000069D1DE0681C1BD02DB1FFF71FFBA0EB1B
:100D50000800A84214D92068C16821F4D071C1608C
:100D60002068416921F001014161202084F83D00A3
:100D700084F83E00002084F83C000320BDE8F081A8
:100D80002068006836EA000004D00020B842D9D0BC
:100D90000020F3E70120F9E7FEE700000FB4054B60
:100DA00010B503A9044A029800F028F810BC5DF8B9
:100DB00014FB0000510F0008600000200907090E15
:100DC000002804DB00F1E02080F80014704700F0F8
:100DD0000F0000F1E02080F8141D704702E008C801
:100DE000121F08C1002AFAD170477047002001E0A5
:100DF00001C1121F002AFBD1704700002DE9FF4FEF
:100E000089B09B460446002506E025280BD05A46AB
:100E10000B999047641C6D1C20780028F5D10DB00B
:100E20002846BDE8F08F0027B8460122474900E078
:100E3000074314F8013F203B02FA03F00842F7D1C0
:100E400020782E2819D114F8010F47F004072A281A
:100E50000ED06FF02F022078A0F1300109290CD8B4
:100E600008EB880102EB410100EB0108641CF2E78A
:100E70000A98641C50F8048B0A9020780028CED081
:100E8000642808D0692806D075281ED05A460B99C8
:100E900090476D1C58E00A994FF00A0901C90A9160
:100EA000002802DA40422D2102E0390504D52B2129
:100EB0008DF82010012103E0F90704D02021F7E785
:100EC0008A4608AE0DE00021FAE70A994FF00A09B8
:100ED00001C90A91F7E74946FFF736F9303106F8BC
:100EE000011D0028F7D1ADEB060000F120097807BD
:100EF00001D44FF00108C84502DDA8EB090000E06D
:100F000000208046002706E008A85A46C05D0B99DD
:100F100090476D1C7F1C5745F6DB04E030205A4695
:100F20000B9990476D1CB8F10001A8F10108F5DCA0
:100F300005E016F8010B5A460B9990476D1CB9F164
:100F40000001A9F10109F4DC641C65E7092801002E
:100F500008490968C90706D0064980390968CA07DF
:100F60004FF0604101D1704700BF0A68002AFBD0F2
:100F700008707047800E00E086B0F8A0FFF70EFF03
:100F8000FFF712FAFFF76EFE0025F948019502956A
:100F90000395816941F0040181618069694600F02F
:100FA0000400049040F2FF100090F248FFF708F9A7
:100FB000F248F1490C2601604FF41651C0E90115C1
:100FC000C560C0E904568561C561FFF7FFFCFFF706
:100FD000EDFD4FF4FA60FFF7E1F8E94C207FFFF7F1
:100FE00003FEC820FFF7DAF80120FFF7C3FDFFF783
:100FF000CDF9E04F47F2305B08374FF00A084FF069
:101000000B0A40F201192062386820640121DD4892
:10101000FFF7B6F92072617A012906D190B91E2036
:10102000FFF7A8FD3220FFF7B9F8607A50B9207AAF
:10103000012807D11D20FFF79DFD3220FFF7AEF8F4
:10104000FFF7EEFD207A60726179E279914300D07A
:1010500098B3206C10F0410F76D010F0810F74D04F
:1010600010EA090F01D1E66036E110F0820F6DD071
:1010700010F0440F6BD010F0120F69D010F0240F55
:1010800067D010F0220F7DD010F0420F7BD010F00F
:10109000840F79D010F0180F77D010F4827F75D0BC
:1010A00010F0280F73D010F0480F71D010F0880F97
:1010B0006FD010F4847F6DD080E2FFE7FFF766F910
:1010C000A062E178002966D194F800C0BCF1000F5D
:1010D00055D0E16BAC4A411A91420BD2626A831A35
:1010E0004EF66022934205D36062A8A0FFF756FE39
:1010F000242096E0AC4A914208D9AC4A914205D2EC
:10110000626A831A4EF660229342EDD2A84A914257
:1011100008D9A84A914205D2626A831A4EF6602223
:101120009342E1D2A44A914214D9A44A914211D2E5
:10113000626A831A4EF6602293420BD36062A0A0CB
:10114000FFF72CFE13206CE084E286E288E289E25D
:101150008AE28BE2A04A914208D9A04A914205D284
:10116000626A831A4EF660229342E7D29C4A914209
:1011700005D9616A421A4EF660218A42DED2E16BDD
:10118000401A09E09AE29BE29CE29DE29EE29FE225
:10119000A1E2A2E2A3E249E0924988420BD3BCF16A
:1011A000000F08D08F496431884204D28EA0FFF727
:1011B000F5FD202035E08E4988420BD3BCF1000FAD
:1011C00008D08B496431884204D28AA0FFF7E6FD3B
:1011D000212026E0894988420BD3BCF1000F08D0BA
:1011E00086496431884204D285A0FFF7D7FD2320C9
:1011F00017E08549884206D3BCF1000F03D082492D
:101200009631884209D3814988420FD3BCF1000F3F
:101210000CD07E499631884208D27DA0FFF7BEFDF2
:101220002220FFF7A7FC3220FEF7B8FFA16BA06ACF
:10123000411A594506D3A07820B1FFF7F1FC76A0FA
:10124000FFF7ACFDFFF7A2F8216A401A7749884200
:101250000BD3207848B90120E07175A0FFF79EFDFF
:10126000FFF7DEFCFFF792F82062206C10F0410FD0
:101270002CD010F0810F31D010EA090F04D1E660B4
:10128000207848B30B20E2E110F0820F2DD010F04F
:10129000440F3DD010F0120F53D010F0240F51D056
:1012A00010F0220F4FD010F0420F4DD010F0840FED
:1012B0004BD010F4827F49D010F0480F47D010F087
:1012C000880F45D010F4847F43D077E1C4F80C80B8
:1012D000207808B10D20BAE1C8206DE1C4F80CA057
:1012E00020780028F8D00C20B1E1E560207868B1C2
:1012F000FFF74CF8216B411A41F28830814202D34A
:101300001820FFF737FCFFF741F82063962053E1E0
:101310000620E060207861780843DDD10120A070CC
:10132000FFF734F8A06320690C2813D004DC0128EF
:1013300011D0022810D187E00D280ED00E280BD135
:101340008AE08FE0AEE0D8E0F9E00EE141E16AE149
:1013500070E176E17CE075E080E07BE04170706CEC
:1013600069636174696F6E2073746172740A00003E
:1013700000100240000801400038014064000020D5
:1013800000000020000C014080A90300316D207294
:10139000656D696E642073706565642075702F6477
:1013A0006F776E0A00000000407E050040D10C00FF
:1013B00000A60E0020651100E039130000F91500A9
:1013C000316D2072656D696E64207370656564208F
:1013D000646F776E0A000000C0CD1700E08C1A0021
:1013E000A0611C00E093040042756F6320340A0082
:1013F000A0BB0D0042756F6320350A00804F1200BC
:1014000042756F6320360A0060E3160040771B00C8
:1014100042756F6320370A0070726F6772616D20CA
:1014200074696D656F75740A00000000C0270900BB
:10143000476F20746F20736C656570206D6F6465F5
:101440000A000000032000E00420FFF793FB05E002
:101450000520FAE70620F8E72561A5702069401C01
:10146000206139E7FEF792FF60626063E06220630B
:10147000E0630720E06020780028F2D1206901288D
:1014800006DD0120E070A4A0FFF788FC252000E025
:101490000720FFF76FFB01202070206160616570FD
:1014A000A57019E70820E06001202071C820FEF730
:1014B00075FE207910B1A069401CA061207860B150
:1014C000FEF764FFE16B411A594503D90220FFF78B
:1014D00051FBEBE0FFF78EFBE8E0A0690A280BD197
:1014E000607910B16571122002E001206071112055
:1014F000FFF740FBA5612571D8E00920E060207866
:10150000A1780843ADD1012060706069012806D040
:10151000022806D0032808D004280CD107E00820B0
:1015200000E00920FFF726FB05E00A20FAE7FFF7B5
:1015300061FB656165706069401C6061CCE60120FB
:10154000E0609620FEF72AFE207898B3FEF71EFF93
:10155000216B411A41F28830814202D31920FFF7F2
:1015600009FBFEF713FF206328E00420E060E06938
:10157000801CE061142801DB1420E061A078617810
:1015800008432178084309D1207FFFF72DFB642011
:10159000FEF704FE68A0E169FFF700FC207850B177
:1015A000FEF7F4FEE16A411A41F28830814236D3F7
:1015B000152032E002E03220FEF7F0FDE0686428FA
:1015C0003FF422AD082800D02571207A012874D07C
:1015D0008DE00520E060E069801EE061002800DC0D
:1015E000E561A078617808432178084309D1207F1C
:1015F000FFF7FAFA6420FEF7D1FD4FA0E169FFF78B
:10160000CDFB20780028D6D0FEF7C0FEE16A411A53
:1016100041F28830814202D31620FFF7ABFAFEF781
:10162000B5FEE062C7E70D20E0602078002885D095
:1016300010200CE00E20E06020780028F7D00F206A
:1016400005E00F20E06020780028F0D00E20FFF7A2
:1016500091FA41E6C4F80C803EE6C4F80CA03BE6E3
:10166000E56053E606203BE0072039E00820E06013
:1016700001202071FFF7BEFAC820FEF78FFD207908
:1016800010B1A069401CA061207800287FF41EAF33
:10169000A0690A280AD1607910B16571122002E0B0
:1016A000012060711120FFF765FAA5612570012006
:1016B000206160616570A57080E713E009200FE08C
:1016C000012006E0042004E0102002E0052000E0F4
:1016D0001120E0601AE60D2002E00E2000E00F204D
:1016E000E060F9E51A20FFF745FAFFF799FAFEF7EF
:1016F0004DFE2062E571207A61786279CDE9025071
:10170000CDE90021A37822780E48E168FFF746FB77
:101710006420E06078E4000053746172742077699B
:101720007468206D6F64652C20646F6E277420725E
:10173000656D696E640A0000566F6C3A2025640A74
:10174000000000006017000800000000000000001A
:101750000102030406070809000000000102030457
:101760004B65793A202564202D2D204973537461EF
:1017700072743A202564202D2D2049734D6F6465C5
:101780003A202564202D2D2069734F6E3A20256460
:10179000202D2D20697353657475703A20256420BF
:1017A0002D2D206973536C6565703A202564202DBA
:1017B0002D20536166654B65793A2025640A000047
:1017C000E01700080000002064000000DC0D0008A5
:1017D000441800086400002044040000EC0D0008D8
:1017E0000000000000010000000000006400000094
:1017F0000100000001000000000000000F000000D8
:1018000000000000000000000000000000000000D8
:1018100000000000000000000000000000000000C8
:10182000000000007EFF06000100000000EF000045
:101830000100000010000000000000000024F4007F
:0418400000000000A4
:04000005080000ED02
:00000001FF
